{
  "contractName": "MultiSender",
  "abi": [
    {
      "inputs": [
        {
          "internalType": "address",
          "name": "_owner",
          "type": "address"
        },
        {
          "internalType": "address",
          "name": "_tokenAddress",
          "type": "address"
        }
      ],
      "stateMutability": "nonpayable",
      "type": "constructor"
    },
    {
      "inputs": [],
      "name": "owner",
      "outputs": [
        {
          "internalType": "address",
          "name": "",
          "type": "address"
        }
      ],
      "stateMutability": "view",
      "type": "function"
    },
    {
      "inputs": [],
      "name": "tokenAddress",
      "outputs": [
        {
          "internalType": "address",
          "name": "",
          "type": "address"
        }
      ],
      "stateMutability": "view",
      "type": "function"
    },
    {
      "inputs": [
        {
          "internalType": "address",
          "name": "_tokenAddress",
          "type": "address"
        }
      ],
      "name": "setTokenAddress",
      "outputs": [],
      "stateMutability": "nonpayable",
      "type": "function"
    },
    {
      "inputs": [
        {
          "internalType": "address[]",
          "name": "_to",
          "type": "address[]"
        },
        {
          "internalType": "uint256[]",
          "name": "_value",
          "type": "uint256[]"
        }
      ],
      "name": "multisend",
      "outputs": [],
      "stateMutability": "nonpayable",
      "type": "function"
    },
    {
      "inputs": [
        {
          "internalType": "address",
          "name": "userAddress",
          "type": "address"
        },
        {
          "internalType": "uint256",
          "name": "amount",
          "type": "uint256"
        }
      ],
      "name": "tokenWithdrawal",
      "outputs": [],
      "stateMutability": "nonpayable",
      "type": "function"
    }
  ],
  "bytecode": "0x608060405234801561001057600080fd5b5060405161067a38038061067a83398101604081905261002f9161007c565b600080546001600160a01b039384166001600160a01b031991821617909155600180549290931691161790556100ae565b80516001600160a01b038116811461007757600080fd5b919050565b6000806040838503121561008e578182fd5b61009783610060565b91506100a560208401610060565b90509250929050565b6105bd806100bd6000396000f3fe608060405234801561001057600080fd5b50600436106100575760003560e01c806326a4e8d21461005c5780638da5cb5b146100715780639d76ea581461008f578063aad41a4114610097578063de0b45e5146100aa575b600080fd5b61006f61006a3660046103cf565b6100bd565b005b610079610112565b60405161008691906104a2565b60405180910390f35b610079610121565b61006f6100a5366004610419565b610130565b61006f6100b83660046103f0565b61029c565b6000546001600160a01b031633146100f05760405162461bcd60e51b81526004016100e790610535565b60405180910390fd5b600180546001600160a01b0319166001600160a01b0392909216919091179055565b6000546001600160a01b031681565b6001546001600160a01b031681565b6000546001600160a01b0316331461015a5760405162461bcd60e51b81526004016100e790610535565b82811461017757634e487b7160e01b600052600160045260246000fd5b60005b60ff8116841115610295576001546001600160a01b031663a9059cbb868660ff85168181106101b957634e487b7160e01b600052603260045260246000fd5b90506020020160208101906101ce91906103cf565b85858560ff168181106101f157634e487b7160e01b600052603260045260246000fd5b905060200201356040518363ffffffff1660e01b81526004016102159291906104b6565b602060405180830381600087803b15801561022f57600080fd5b505af1158015610243573d6000803e3d6000fd5b505050506040513d601f19601f820116820180604052508101906102679190610482565b6102835760405162461bcd60e51b81526004016100e7906104fe565b8061028d8161055b565b91505061017a565b5050505050565b6000546001600160a01b031633146102c65760405162461bcd60e51b81526004016100e790610535565b60015460405163a9059cbb60e01b81526001600160a01b039091169063a9059cbb906102f890859085906004016104b6565b602060405180830381600087803b15801561031257600080fd5b505af1158015610326573d6000803e3d6000fd5b505050506040513d601f19601f8201168201806040525081019061034a9190610482565b6103665760405162461bcd60e51b81526004016100e7906104cf565b5050565b80356001600160a01b038116811461038157600080fd5b919050565b60008083601f840112610397578182fd5b50813567ffffffffffffffff8111156103ae578182fd5b60208301915083602080830285010111156103c857600080fd5b9250929050565b6000602082840312156103e0578081fd5b6103e98261036a565b9392505050565b60008060408385031215610402578081fd5b61040b8361036a565b946020939093013593505050565b6000806000806040858703121561042e578182fd5b843567ffffffffffffffff80821115610445578384fd5b61045188838901610386565b90965094506020870135915080821115610469578384fd5b5061047687828801610386565b95989497509550505050565b600060208284031215610493578081fd5b815180151581146103e9578182fd5b6001600160a01b0391909116815260200190565b6001600160a01b03929092168252602082015260400190565b602080825260159082015274151bdad95b881d1c985b9cd9995c8819985a5b1959605a1b604082015260600190565b6020808252601e908201527f4d756c7469706c6520746f6b656e207472616e73666572206661696c65640000604082015260600190565b6020808252600c908201526b24b73b30b634b2103ab9b2b960a11b604082015260600190565b600060ff821660ff81141561057e57634e487b7160e01b82526011600452602482fd5b6001019291505056fea2646970667358221220286903dd3c08040debcbfd0d456aeab6cb0c63372ddd1f717e7e6122e208588064736f6c63430008000033",
  "immutableReferences": {},
  "source": "pragma solidity ^0.8.0;\n\ninterface Token {\n    function transfer(address to, uint256 value) external returns (bool);\n}\n\ncontract MultiSender {\n    \n    address public owner;\n    address public tokenAddress;\n    \n    constructor(address _owner, address _tokenAddress) {\n        owner = _owner;\n        tokenAddress = _tokenAddress;\n    }\n\n    function setTokenAddress(address _tokenAddress) public {\n        require(msg.sender == owner, \"Invalid user\");\n        tokenAddress = _tokenAddress;    \n    }\n    \n    function multisend(address[] calldata _to, uint256[] calldata _value) external {\n        require(msg.sender == owner, \"Invalid user\");\n        assert(_to.length == _value.length);\n        // loop through to addresses and send value\n        for (uint8 i = 0; i < _to.length; i++) {\n            require(Token(tokenAddress).transfer(_to[i], _value[i]), \"Multiple token transfer failed\");\n        }\n    }\n        \n    function tokenWithdrawal(address userAddress, uint256 amount) public {\n        require(msg.sender == owner, \"Invalid user\");\n        require(Token(tokenAddress).transfer(userAddress, amount), \"Token transfer failed\");\n    }\n}",
  "sourcePath": "/home/fasih/Desktop/Fasih/Github/BulkTokenSender/contracts/MultiSender.sol",
  "compiler": {
    "name": "solc",
    "version": "0.8.0+commit.c7dfd78e.Emscripten.clang"
  },
  "schemaVersion": "3.4.5",
  "updatedAt": "2022-03-07T11:29:42.799Z",
  "devdoc": {
    "kind": "dev",
    "methods": {},
    "version": 1
  },
  "userdoc": {
    "kind": "user",
    "methods": {},
    "version": 1
  }
}